{
  "abi": [
    {
      "inputs": [],
      "stateMutability": "nonpayable",
      "type": "constructor"
    },
    {
      "anonymous": false,
      "inputs": [
        {
          "indexed": false,
          "internalType": "uint256",
          "name": "id",
          "type": "uint256"
        },
        {
          "indexed": false,
          "internalType": "bool",
          "name": "ValidPatient",
          "type": "bool"
        }
      ],
      "name": "InvalidatePatient",
      "type": "event"
    },
    {
      "anonymous": false,
      "inputs": [
        {
          "indexed": false,
          "internalType": "address",
          "name": "_PatientAddress",
          "type": "address"
        },
        {
          "indexed": false,
          "internalType": "string",
          "name": "_PatientKeyGenerated",
          "type": "string"
        }
      ],
      "name": "PatientAdded",
      "type": "event"
    },
    {
      "anonymous": false,
      "inputs": [
        {
          "indexed": false,
          "internalType": "uint256",
          "name": "id",
          "type": "uint256"
        },
        {
          "indexed": false,
          "internalType": "bool",
          "name": "ValidPatient",
          "type": "bool"
        }
      ],
      "name": "ValidatePatient",
      "type": "event"
    },
    {
      "inputs": [],
      "name": "AddressOfUser",
      "outputs": [
        {
          "internalType": "address",
          "name": "",
          "type": "address"
        }
      ],
      "stateMutability": "view",
      "type": "function"
    },
    {
      "inputs": [
        {
          "internalType": "address",
          "name": "",
          "type": "address"
        },
        {
          "internalType": "uint256",
          "name": "",
          "type": "uint256"
        }
      ],
      "name": "Patients",
      "outputs": [
        {
          "internalType": "uint256",
          "name": "id",
          "type": "uint256"
        },
        {
          "components": [
            {
              "internalType": "string",
              "name": "Key",
              "type": "string"
            },
            {
              "internalType": "bool",
              "name": "Valid",
              "type": "bool"
            }
          ],
          "internalType": "struct Main.AccessKey",
          "name": "PatientKey",
          "type": "tuple"
        },
        {
          "internalType": "bool",
          "name": "ValidPatient",
          "type": "bool"
        }
      ],
      "stateMutability": "view",
      "type": "function"
    },
    {
      "inputs": [
        {
          "internalType": "address",
          "name": "_PatientAddress",
          "type": "address"
        },
        {
          "internalType": "string",
          "name": "_PatientKeyGenerated",
          "type": "string"
        }
      ],
      "name": "addPatientToDatabase",
      "outputs": [],
      "stateMutability": "payable",
      "type": "function"
    },
    {
      "inputs": [
        {
          "internalType": "address",
          "name": "_AddressOfUser",
          "type": "address"
        }
      ],
      "name": "checkIfProvider",
      "outputs": [
        {
          "internalType": "bool",
          "name": "",
          "type": "bool"
        }
      ],
      "stateMutability": "payable",
      "type": "function"
    },
    {
      "inputs": [
        {
          "internalType": "address",
          "name": "_PatientWalletAddress",
          "type": "address"
        }
      ],
      "name": "checkPatient",
      "outputs": [
        {
          "internalType": "bool",
          "name": "",
          "type": "bool"
        }
      ],
      "stateMutability": "payable",
      "type": "function"
    },
    {
      "inputs": [],
      "name": "getSelfKeys",
      "outputs": [
        {
          "components": [
            {
              "internalType": "uint256",
              "name": "id",
              "type": "uint256"
            },
            {
              "components": [
                {
                  "internalType": "string",
                  "name": "Key",
                  "type": "string"
                },
                {
                  "internalType": "bool",
                  "name": "Valid",
                  "type": "bool"
                }
              ],
              "internalType": "struct Main.AccessKey",
              "name": "PatientKey",
              "type": "tuple"
            },
            {
              "internalType": "bool",
              "name": "ValidPatient",
              "type": "bool"
            }
          ],
          "internalType": "struct Main.PatientsData",
          "name": "data",
          "type": "tuple"
        }
      ],
      "stateMutability": "view",
      "type": "function"
    }
  ],
  "bytecode": "608060405234801561001057600080fd5b50600080546001600160a01b03191633179055610a2b806100326000396000f3fe6080604052600436106100555760003560e01c8063083faa1b1461005a5780636529c777146100855780636d5f5aa9146100a8578063d64799a7146100d7578063dc220af2146100ea578063e4d18d5814610122575b600080fd5b34801561006657600080fd5b5061006f610137565b60405161007c9190610757565b60405180910390f35b6100986100933660046107ac565b61023b565b604051901515815260200161007c565b3480156100b457600080fd5b506100c86100c33660046107ce565b610391565b60405161007c939291906107f8565b6100986100e53660046107ac565b61047b565b3480156100f657600080fd5b5060005461010a906001600160a01b031681565b6040516001600160a01b03909116815260200161007c565b610135610130366004610839565b610502565b005b61013f610608565b600080546001600160a01b0316815260016020818152604080842084805282529283902083516060810185528154815284518086019095529281018054939491939285019282908290610191906108fb565b80601f01602080910402602001604051908101604052809291908181526020018280546101bd906108fb565b801561020a5780601f106101df5761010080835404028352916020019161020a565b820191906000526020600020905b8154815290600101906020018083116101ed57829003601f168201915b50505091835250506001919091015460ff908116151560209283015291835260039390930154161515910152919050565b60008054610251906001600160a01b031661047b565b151560011461027b5760405162461bcd60e51b815260040161027290610930565b60405180910390fd5b6001600160a01b0382166000908152600160208181526040808420848052825280842081516060810183528154815282518084019093529381018054919385019291829082906102ca906108fb565b80601f01602080910402602001604051908101604052809291908181526020018280546102f6906108fb565b80156103435780601f1061031857610100808354040283529160200191610343565b820191906000526020600020905b81548152906001019060200180831161032657829003601f168201915b50505091835250506001919091015460ff90811615156020928301529183526003939093015416151591015280519091506103815750600192915050565b50600092915050565b505b919050565b600160205281600052604060002060205280600052604060002060009150915050806000015490806001016040518060400160405290816000820180546103d7906108fb565b80601f0160208091040260200160405190810160405280929190818152602001828054610403906108fb565b80156104505780601f1061042557610100808354040283529160200191610450565b820191906000526020600020905b81548152906001019060200180831161043357829003601f168201915b50505091835250506001919091015460ff908116151560209092019190915260039092015490911683565b60405163d64799a760e01b81526001600160a01b0382166004820152600090733a36bf2c867c14fbd2565a2ecac68489175334159063d64799a7906024016020604051808303816000875af11580156104d8573d6000803e3d6000fd5b505050506040513d601f19601f820116820180604052508101906104fc919061097e565b92915050565b600054610517906001600160a01b031661047b565b15156001146105385760405162461bcd60e51b815260040161027290610930565b6001600160a01b03821660009081526002602090815260408083205460018084528285208286528452919093208381558451909261057c9284019190860190610646565b5060028181018054600160ff19918216811790925560038401805490911690911790556001600160a01b0385166000908152602091909152604081208054916105c4836109a0565b91905055507ff537abbc11693c65132fb438317bbefdab9fecb035a7828567ae49f76d6976c584846040516105fa9291906109c9565b60405180910390a150505050565b6040518060600160405280600081526020016106396040518060400160405280606081526020016000151581525090565b8152600060209091015290565b828054610652906108fb565b90600052602060002090601f01602090048101928261067457600085556106ba565b82601f1061068d57805160ff19168380011785556106ba565b828001600101855582156106ba579182015b828111156106ba57825182559160200191906001019061069f565b506106c69291506106ca565b5090565b5b808211156106c657600081556001016106cb565b6000815180845260005b81811015610705576020818501810151868301820152016106e9565b81811115610717576000602083870101525b50601f01601f19169290920160200192915050565b600081516040845261074160408501826106df565b6020938401511515949093019390935250919050565b6020815281516020820152600060208301516060604084015261077d608084018261072c565b90506040840151151560608401528091505092915050565b80356001600160a01b038116811461038c57600080fd5b6000602082840312156107be57600080fd5b6107c782610795565b9392505050565b600080604083850312156107e157600080fd5b6107ea83610795565b946020939093013593505050565b838152606060208201526000610811606083018561072c565b90508215156040830152949350505050565b634e487b7160e01b600052604160045260246000fd5b6000806040838503121561084c57600080fd5b61085583610795565b9150602083013567ffffffffffffffff8082111561087257600080fd5b818501915085601f83011261088657600080fd5b81358181111561089857610898610823565b604051601f8201601f19908116603f011681019083821181831017156108c0576108c0610823565b816040528281528860208487010111156108d957600080fd5b8260208601602083013760006020848301015280955050505050509250929050565b600181811c9082168061090f57607f821691505b6020821081141561038a57634e487b7160e01b600052602260045260246000fd5b6020808252602e908201527f596f75206d75737420626520612070726f766964657220746f2061636365737360408201526d103a3434b990333ab731ba34b7b760911b606082015260800190565b60006020828403121561099057600080fd5b815180151581146107c757600080fd5b60006000198214156109c257634e487b7160e01b600052601160045260246000fd5b5060010190565b6001600160a01b03831681526040602082018190526000906109ed908301846106df565b94935050505056fea264697066735822122055171497b08cc2ed3317c7197514e64a617683db5a69423802dd488b294d86f464736f6c634300080b0033",
  "bytecodeSha1": "157b6d832606f07a8066330ae317299651cb52fa",
  "compiler": {
    "evm_version": "istanbul",
    "optimizer": {
      "enabled": true,
      "runs": 200
    },
    "version": "0.8.11+commit.d7f03943"
  },
  "contractName": "Main",
  "language": "Solidity",
  "natspec": {
    "kind": "dev",
    "methods": {},
    "version": 1
  },
  "opcodes": "PUSH1 0x80 PUSH1 0x40 MSTORE PUSH1 0x4 CALLDATASIZE LT PUSH2 0x55 JUMPI PUSH1 0x0 CALLDATALOAD PUSH1 0xE0 SHR DUP1 PUSH4 0x83FAA1B EQ PUSH2 0x5A JUMPI DUP1 PUSH4 0x6529C777 EQ PUSH2 0x85 JUMPI DUP1 PUSH4 0x6D5F5AA9 EQ PUSH2 0xA8 JUMPI DUP1 PUSH4 0xD64799A7 EQ PUSH2 0xD7 JUMPI DUP1 PUSH4 0xDC220AF2 EQ PUSH2 0xEA JUMPI DUP1 PUSH4 0xE4D18D58 EQ PUSH2 0x122 JUMPI JUMPDEST PUSH1 0x0 DUP1 REVERT JUMPDEST CALLVALUE DUP1 ISZERO PUSH2 0x66 JUMPI PUSH1 0x0 DUP1 REVERT JUMPDEST POP PUSH2 0x6F PUSH2 0x137 JUMP JUMPDEST PUSH1 0x40 MLOAD PUSH2 0x7C SWAP2 SWAP1 PUSH2 0x757 JUMP JUMPDEST PUSH1 0x40 MLOAD DUP1 SWAP2 SUB SWAP1 RETURN JUMPDEST PUSH2 0x98 PUSH2 0x93 CALLDATASIZE PUSH1 0x4 PUSH2 0x7AC JUMP JUMPDEST PUSH2 0x23B JUMP JUMPDEST PUSH1 0x40 MLOAD SWAP1 ISZERO ISZERO DUP2 MSTORE PUSH1 0x20 ADD PUSH2 0x7C JUMP JUMPDEST CALLVALUE DUP1 ISZERO PUSH2 0xB4 JUMPI PUSH1 0x0 DUP1 REVERT JUMPDEST POP PUSH2 0xC8 PUSH2 0xC3 CALLDATASIZE PUSH1 0x4 PUSH2 0x7CE JUMP JUMPDEST PUSH2 0x391 JUMP JUMPDEST PUSH1 0x40 MLOAD PUSH2 0x7C SWAP4 SWAP3 SWAP2 SWAP1 PUSH2 0x7F8 JUMP JUMPDEST PUSH2 0x98 PUSH2 0xE5 CALLDATASIZE PUSH1 0x4 PUSH2 0x7AC JUMP JUMPDEST PUSH2 0x47B JUMP JUMPDEST CALLVALUE DUP1 ISZERO PUSH2 0xF6 JUMPI PUSH1 0x0 DUP1 REVERT JUMPDEST POP PUSH1 0x0 SLOAD PUSH2 0x10A SWAP1 PUSH1 0x1 PUSH1 0x1 PUSH1 0xA0 SHL SUB AND DUP2 JUMP JUMPDEST PUSH1 0x40 MLOAD PUSH1 0x1 PUSH1 0x1 PUSH1 0xA0 SHL SUB SWAP1 SWAP2 AND DUP2 MSTORE PUSH1 0x20 ADD PUSH2 0x7C JUMP JUMPDEST PUSH2 0x135 PUSH2 0x130 CALLDATASIZE PUSH1 0x4 PUSH2 0x839 JUMP JUMPDEST PUSH2 0x502 JUMP JUMPDEST STOP JUMPDEST PUSH2 0x13F PUSH2 0x608 JUMP JUMPDEST PUSH1 0x0 DUP1 SLOAD PUSH1 0x1 PUSH1 0x1 PUSH1 0xA0 SHL SUB AND DUP2 MSTORE PUSH1 0x1 PUSH1 0x20 DUP2 DUP2 MSTORE PUSH1 0x40 DUP1 DUP5 KECCAK256 DUP5 DUP1 MSTORE DUP3 MSTORE SWAP3 DUP4 SWAP1 KECCAK256 DUP4 MLOAD PUSH1 0x60 DUP2 ADD DUP6 MSTORE DUP2 SLOAD DUP2 MSTORE DUP5 MLOAD DUP1 DUP7 ADD SWAP1 SWAP6 MSTORE SWAP3 DUP2 ADD DUP1 SLOAD SWAP4 SWAP5 SWAP2 SWAP4 SWAP3 DUP6 ADD SWAP3 DUP3 SWAP1 DUP3 SWAP1 PUSH2 0x191 SWAP1 PUSH2 0x8FB JUMP JUMPDEST DUP1 PUSH1 0x1F ADD PUSH1 0x20 DUP1 SWAP2 DIV MUL PUSH1 0x20 ADD PUSH1 0x40 MLOAD SWAP1 DUP2 ADD PUSH1 0x40 MSTORE DUP1 SWAP3 SWAP2 SWAP1 DUP2 DUP2 MSTORE PUSH1 0x20 ADD DUP3 DUP1 SLOAD PUSH2 0x1BD SWAP1 PUSH2 0x8FB JUMP JUMPDEST DUP1 ISZERO PUSH2 0x20A JUMPI DUP1 PUSH1 0x1F LT PUSH2 0x1DF JUMPI PUSH2 0x100 DUP1 DUP4 SLOAD DIV MUL DUP4 MSTORE SWAP2 PUSH1 0x20 ADD SWAP2 PUSH2 0x20A JUMP JUMPDEST DUP3 ADD SWAP2 SWAP1 PUSH1 0x0 MSTORE PUSH1 0x20 PUSH1 0x0 KECCAK256 SWAP1 JUMPDEST DUP2 SLOAD DUP2 MSTORE SWAP1 PUSH1 0x1 ADD SWAP1 PUSH1 0x20 ADD DUP1 DUP4 GT PUSH2 0x1ED JUMPI DUP3 SWAP1 SUB PUSH1 0x1F AND DUP3 ADD SWAP2 JUMPDEST POP POP POP SWAP2 DUP4 MSTORE POP POP PUSH1 0x1 SWAP2 SWAP1 SWAP2 ADD SLOAD PUSH1 0xFF SWAP1 DUP2 AND ISZERO ISZERO PUSH1 0x20 SWAP3 DUP4 ADD MSTORE SWAP2 DUP4 MSTORE PUSH1 0x3 SWAP4 SWAP1 SWAP4 ADD SLOAD AND ISZERO ISZERO SWAP2 ADD MSTORE SWAP2 SWAP1 POP JUMP JUMPDEST PUSH1 0x0 DUP1 SLOAD PUSH2 0x251 SWAP1 PUSH1 0x1 PUSH1 0x1 PUSH1 0xA0 SHL SUB AND PUSH2 0x47B JUMP JUMPDEST ISZERO ISZERO PUSH1 0x1 EQ PUSH2 0x27B JUMPI PUSH1 0x40 MLOAD PUSH3 0x461BCD PUSH1 0xE5 SHL DUP2 MSTORE PUSH1 0x4 ADD PUSH2 0x272 SWAP1 PUSH2 0x930 JUMP JUMPDEST PUSH1 0x40 MLOAD DUP1 SWAP2 SUB SWAP1 REVERT JUMPDEST PUSH1 0x1 PUSH1 0x1 PUSH1 0xA0 SHL SUB DUP3 AND PUSH1 0x0 SWAP1 DUP2 MSTORE PUSH1 0x1 PUSH1 0x20 DUP2 DUP2 MSTORE PUSH1 0x40 DUP1 DUP5 KECCAK256 DUP5 DUP1 MSTORE DUP3 MSTORE DUP1 DUP5 KECCAK256 DUP2 MLOAD PUSH1 0x60 DUP2 ADD DUP4 MSTORE DUP2 SLOAD DUP2 MSTORE DUP3 MLOAD DUP1 DUP5 ADD SWAP1 SWAP4 MSTORE SWAP4 DUP2 ADD DUP1 SLOAD SWAP2 SWAP4 DUP6 ADD SWAP3 SWAP2 DUP3 SWAP1 DUP3 SWAP1 PUSH2 0x2CA SWAP1 PUSH2 0x8FB JUMP JUMPDEST DUP1 PUSH1 0x1F ADD PUSH1 0x20 DUP1 SWAP2 DIV MUL PUSH1 0x20 ADD PUSH1 0x40 MLOAD SWAP1 DUP2 ADD PUSH1 0x40 MSTORE DUP1 SWAP3 SWAP2 SWAP1 DUP2 DUP2 MSTORE PUSH1 0x20 ADD DUP3 DUP1 SLOAD PUSH2 0x2F6 SWAP1 PUSH2 0x8FB JUMP JUMPDEST DUP1 ISZERO PUSH2 0x343 JUMPI DUP1 PUSH1 0x1F LT PUSH2 0x318 JUMPI PUSH2 0x100 DUP1 DUP4 SLOAD DIV MUL DUP4 MSTORE SWAP2 PUSH1 0x20 ADD SWAP2 PUSH2 0x343 JUMP JUMPDEST DUP3 ADD SWAP2 SWAP1 PUSH1 0x0 MSTORE PUSH1 0x20 PUSH1 0x0 KECCAK256 SWAP1 JUMPDEST DUP2 SLOAD DUP2 MSTORE SWAP1 PUSH1 0x1 ADD SWAP1 PUSH1 0x20 ADD DUP1 DUP4 GT PUSH2 0x326 JUMPI DUP3 SWAP1 SUB PUSH1 0x1F AND DUP3 ADD SWAP2 JUMPDEST POP POP POP SWAP2 DUP4 MSTORE POP POP PUSH1 0x1 SWAP2 SWAP1 SWAP2 ADD SLOAD PUSH1 0xFF SWAP1 DUP2 AND ISZERO ISZERO PUSH1 0x20 SWAP3 DUP4 ADD MSTORE SWAP2 DUP4 MSTORE PUSH1 0x3 SWAP4 SWAP1 SWAP4 ADD SLOAD AND ISZERO ISZERO SWAP2 ADD MSTORE DUP1 MLOAD SWAP1 SWAP2 POP PUSH2 0x381 JUMPI POP PUSH1 0x1 SWAP3 SWAP2 POP POP JUMP JUMPDEST POP PUSH1 0x0 SWAP3 SWAP2 POP POP JUMP JUMPDEST POP JUMPDEST SWAP2 SWAP1 POP JUMP JUMPDEST PUSH1 0x1 PUSH1 0x20 MSTORE DUP2 PUSH1 0x0 MSTORE PUSH1 0x40 PUSH1 0x0 KECCAK256 PUSH1 0x20 MSTORE DUP1 PUSH1 0x0 MSTORE PUSH1 0x40 PUSH1 0x0 KECCAK256 PUSH1 0x0 SWAP2 POP SWAP2 POP POP DUP1 PUSH1 0x0 ADD SLOAD SWAP1 DUP1 PUSH1 0x1 ADD PUSH1 0x40 MLOAD DUP1 PUSH1 0x40 ADD PUSH1 0x40 MSTORE SWAP1 DUP2 PUSH1 0x0 DUP3 ADD DUP1 SLOAD PUSH2 0x3D7 SWAP1 PUSH2 0x8FB JUMP JUMPDEST DUP1 PUSH1 0x1F ADD PUSH1 0x20 DUP1 SWAP2 DIV MUL PUSH1 0x20 ADD PUSH1 0x40 MLOAD SWAP1 DUP2 ADD PUSH1 0x40 MSTORE DUP1 SWAP3 SWAP2 SWAP1 DUP2 DUP2 MSTORE PUSH1 0x20 ADD DUP3 DUP1 SLOAD PUSH2 0x403 SWAP1 PUSH2 0x8FB JUMP JUMPDEST DUP1 ISZERO PUSH2 0x450 JUMPI DUP1 PUSH1 0x1F LT PUSH2 0x425 JUMPI PUSH2 0x100 DUP1 DUP4 SLOAD DIV MUL DUP4 MSTORE SWAP2 PUSH1 0x20 ADD SWAP2 PUSH2 0x450 JUMP JUMPDEST DUP3 ADD SWAP2 SWAP1 PUSH1 0x0 MSTORE PUSH1 0x20 PUSH1 0x0 KECCAK256 SWAP1 JUMPDEST DUP2 SLOAD DUP2 MSTORE SWAP1 PUSH1 0x1 ADD SWAP1 PUSH1 0x20 ADD DUP1 DUP4 GT PUSH2 0x433 JUMPI DUP3 SWAP1 SUB PUSH1 0x1F AND DUP3 ADD SWAP2 JUMPDEST POP POP POP SWAP2 DUP4 MSTORE POP POP PUSH1 0x1 SWAP2 SWAP1 SWAP2 ADD SLOAD PUSH1 0xFF SWAP1 DUP2 AND ISZERO ISZERO PUSH1 0x20 SWAP1 SWAP3 ADD SWAP2 SWAP1 SWAP2 MSTORE PUSH1 0x3 SWAP1 SWAP3 ADD SLOAD SWAP1 SWAP2 AND DUP4 JUMP JUMPDEST PUSH1 0x40 MLOAD PUSH4 0xD64799A7 PUSH1 0xE0 SHL DUP2 MSTORE PUSH1 0x1 PUSH1 0x1 PUSH1 0xA0 SHL SUB DUP3 AND PUSH1 0x4 DUP3 ADD MSTORE PUSH1 0x0 SWAP1 PUSH20 0x3A36BF2C867C14FBD2565A2ECAC6848917533415 SWAP1 PUSH4 0xD64799A7 SWAP1 PUSH1 0x24 ADD PUSH1 0x20 PUSH1 0x40 MLOAD DUP1 DUP4 SUB DUP2 PUSH1 0x0 DUP8 GAS CALL ISZERO DUP1 ISZERO PUSH2 0x4D8 JUMPI RETURNDATASIZE PUSH1 0x0 DUP1 RETURNDATACOPY RETURNDATASIZE PUSH1 0x0 REVERT JUMPDEST POP POP POP POP PUSH1 0x40 MLOAD RETURNDATASIZE PUSH1 0x1F NOT PUSH1 0x1F DUP3 ADD AND DUP3 ADD DUP1 PUSH1 0x40 MSTORE POP DUP2 ADD SWAP1 PUSH2 0x4FC SWAP2 SWAP1 PUSH2 0x97E JUMP JUMPDEST SWAP3 SWAP2 POP POP JUMP JUMPDEST PUSH1 0x0 SLOAD PUSH2 0x517 SWAP1 PUSH1 0x1 PUSH1 0x1 PUSH1 0xA0 SHL SUB AND PUSH2 0x47B JUMP JUMPDEST ISZERO ISZERO PUSH1 0x1 EQ PUSH2 0x538 JUMPI PUSH1 0x40 MLOAD PUSH3 0x461BCD PUSH1 0xE5 SHL DUP2 MSTORE PUSH1 0x4 ADD PUSH2 0x272 SWAP1 PUSH2 0x930 JUMP JUMPDEST PUSH1 0x1 PUSH1 0x1 PUSH1 0xA0 SHL SUB DUP3 AND PUSH1 0x0 SWAP1 DUP2 MSTORE PUSH1 0x2 PUSH1 0x20 SWAP1 DUP2 MSTORE PUSH1 0x40 DUP1 DUP4 KECCAK256 SLOAD PUSH1 0x1 DUP1 DUP5 MSTORE DUP3 DUP6 KECCAK256 DUP3 DUP7 MSTORE DUP5 MSTORE SWAP2 SWAP1 SWAP4 KECCAK256 DUP4 DUP2 SSTORE DUP5 MLOAD SWAP1 SWAP3 PUSH2 0x57C SWAP3 DUP5 ADD SWAP2 SWAP1 DUP7 ADD SWAP1 PUSH2 0x646 JUMP JUMPDEST POP PUSH1 0x2 DUP2 DUP2 ADD DUP1 SLOAD PUSH1 0x1 PUSH1 0xFF NOT SWAP2 DUP3 AND DUP2 OR SWAP1 SWAP3 SSTORE PUSH1 0x3 DUP5 ADD DUP1 SLOAD SWAP1 SWAP2 AND SWAP1 SWAP2 OR SWAP1 SSTORE PUSH1 0x1 PUSH1 0x1 PUSH1 0xA0 SHL SUB DUP6 AND PUSH1 0x0 SWAP1 DUP2 MSTORE PUSH1 0x20 SWAP2 SWAP1 SWAP2 MSTORE PUSH1 0x40 DUP2 KECCAK256 DUP1 SLOAD SWAP2 PUSH2 0x5C4 DUP4 PUSH2 0x9A0 JUMP JUMPDEST SWAP2 SWAP1 POP SSTORE POP PUSH32 0xF537ABBC11693C65132FB438317BBEFDAB9FECB035A7828567AE49F76D6976C5 DUP5 DUP5 PUSH1 0x40 MLOAD PUSH2 0x5FA SWAP3 SWAP2 SWAP1 PUSH2 0x9C9 JUMP JUMPDEST PUSH1 0x40 MLOAD DUP1 SWAP2 SUB SWAP1 LOG1 POP POP POP POP JUMP JUMPDEST PUSH1 0x40 MLOAD DUP1 PUSH1 0x60 ADD PUSH1 0x40 MSTORE DUP1 PUSH1 0x0 DUP2 MSTORE PUSH1 0x20 ADD PUSH2 0x639 PUSH1 0x40 MLOAD DUP1 PUSH1 0x40 ADD PUSH1 0x40 MSTORE DUP1 PUSH1 0x60 DUP2 MSTORE PUSH1 0x20 ADD PUSH1 0x0 ISZERO ISZERO DUP2 MSTORE POP SWAP1 JUMP JUMPDEST DUP2 MSTORE PUSH1 0x0 PUSH1 0x20 SWAP1 SWAP2 ADD MSTORE SWAP1 JUMP JUMPDEST DUP3 DUP1 SLOAD PUSH2 0x652 SWAP1 PUSH2 0x8FB JUMP JUMPDEST SWAP1 PUSH1 0x0 MSTORE PUSH1 0x20 PUSH1 0x0 KECCAK256 SWAP1 PUSH1 0x1F ADD PUSH1 0x20 SWAP1 DIV DUP2 ADD SWAP3 DUP3 PUSH2 0x674 JUMPI PUSH1 0x0 DUP6 SSTORE PUSH2 0x6BA JUMP JUMPDEST DUP3 PUSH1 0x1F LT PUSH2 0x68D JUMPI DUP1 MLOAD PUSH1 0xFF NOT AND DUP4 DUP1 ADD OR DUP6 SSTORE PUSH2 0x6BA JUMP JUMPDEST DUP3 DUP1 ADD PUSH1 0x1 ADD DUP6 SSTORE DUP3 ISZERO PUSH2 0x6BA JUMPI SWAP2 DUP3 ADD JUMPDEST DUP3 DUP2 GT ISZERO PUSH2 0x6BA JUMPI DUP3 MLOAD DUP3 SSTORE SWAP2 PUSH1 0x20 ADD SWAP2 SWAP1 PUSH1 0x1 ADD SWAP1 PUSH2 0x69F JUMP JUMPDEST POP PUSH2 0x6C6 SWAP3 SWAP2 POP PUSH2 0x6CA JUMP JUMPDEST POP SWAP1 JUMP JUMPDEST JUMPDEST DUP1 DUP3 GT ISZERO PUSH2 0x6C6 JUMPI PUSH1 0x0 DUP2 SSTORE PUSH1 0x1 ADD PUSH2 0x6CB JUMP JUMPDEST PUSH1 0x0 DUP2 MLOAD DUP1 DUP5 MSTORE PUSH1 0x0 JUMPDEST DUP2 DUP2 LT ISZERO PUSH2 0x705 JUMPI PUSH1 0x20 DUP2 DUP6 ADD DUP2 ADD MLOAD DUP7 DUP4 ADD DUP3 ADD MSTORE ADD PUSH2 0x6E9 JUMP JUMPDEST DUP2 DUP2 GT ISZERO PUSH2 0x717 JUMPI PUSH1 0x0 PUSH1 0x20 DUP4 DUP8 ADD ADD MSTORE JUMPDEST POP PUSH1 0x1F ADD PUSH1 0x1F NOT AND SWAP3 SWAP1 SWAP3 ADD PUSH1 0x20 ADD SWAP3 SWAP2 POP POP JUMP JUMPDEST PUSH1 0x0 DUP2 MLOAD PUSH1 0x40 DUP5 MSTORE PUSH2 0x741 PUSH1 0x40 DUP6 ADD DUP3 PUSH2 0x6DF JUMP JUMPDEST PUSH1 0x20 SWAP4 DUP5 ADD MLOAD ISZERO ISZERO SWAP5 SWAP1 SWAP4 ADD SWAP4 SWAP1 SWAP4 MSTORE POP SWAP2 SWAP1 POP JUMP JUMPDEST PUSH1 0x20 DUP2 MSTORE DUP2 MLOAD PUSH1 0x20 DUP3 ADD MSTORE PUSH1 0x0 PUSH1 0x20 DUP4 ADD MLOAD PUSH1 0x60 PUSH1 0x40 DUP5 ADD MSTORE PUSH2 0x77D PUSH1 0x80 DUP5 ADD DUP3 PUSH2 0x72C JUMP JUMPDEST SWAP1 POP PUSH1 0x40 DUP5 ADD MLOAD ISZERO ISZERO PUSH1 0x60 DUP5 ADD MSTORE DUP1 SWAP2 POP POP SWAP3 SWAP2 POP POP JUMP JUMPDEST DUP1 CALLDATALOAD PUSH1 0x1 PUSH1 0x1 PUSH1 0xA0 SHL SUB DUP2 AND DUP2 EQ PUSH2 0x38C JUMPI PUSH1 0x0 DUP1 REVERT JUMPDEST PUSH1 0x0 PUSH1 0x20 DUP3 DUP5 SUB SLT ISZERO PUSH2 0x7BE JUMPI PUSH1 0x0 DUP1 REVERT JUMPDEST PUSH2 0x7C7 DUP3 PUSH2 0x795 JUMP JUMPDEST SWAP4 SWAP3 POP POP POP JUMP JUMPDEST PUSH1 0x0 DUP1 PUSH1 0x40 DUP4 DUP6 SUB SLT ISZERO PUSH2 0x7E1 JUMPI PUSH1 0x0 DUP1 REVERT JUMPDEST PUSH2 0x7EA DUP4 PUSH2 0x795 JUMP JUMPDEST SWAP5 PUSH1 0x20 SWAP4 SWAP1 SWAP4 ADD CALLDATALOAD SWAP4 POP POP POP JUMP JUMPDEST DUP4 DUP2 MSTORE PUSH1 0x60 PUSH1 0x20 DUP3 ADD MSTORE PUSH1 0x0 PUSH2 0x811 PUSH1 0x60 DUP4 ADD DUP6 PUSH2 0x72C JUMP JUMPDEST SWAP1 POP DUP3 ISZERO ISZERO PUSH1 0x40 DUP4 ADD MSTORE SWAP5 SWAP4 POP POP POP POP JUMP JUMPDEST PUSH4 0x4E487B71 PUSH1 0xE0 SHL PUSH1 0x0 MSTORE PUSH1 0x41 PUSH1 0x4 MSTORE PUSH1 0x24 PUSH1 0x0 REVERT JUMPDEST PUSH1 0x0 DUP1 PUSH1 0x40 DUP4 DUP6 SUB SLT ISZERO PUSH2 0x84C JUMPI PUSH1 0x0 DUP1 REVERT JUMPDEST PUSH2 0x855 DUP4 PUSH2 0x795 JUMP JUMPDEST SWAP2 POP PUSH1 0x20 DUP4 ADD CALLDATALOAD PUSH8 0xFFFFFFFFFFFFFFFF DUP1 DUP3 GT ISZERO PUSH2 0x872 JUMPI PUSH1 0x0 DUP1 REVERT JUMPDEST DUP2 DUP6 ADD SWAP2 POP DUP6 PUSH1 0x1F DUP4 ADD SLT PUSH2 0x886 JUMPI PUSH1 0x0 DUP1 REVERT JUMPDEST DUP2 CALLDATALOAD DUP2 DUP2 GT ISZERO PUSH2 0x898 JUMPI PUSH2 0x898 PUSH2 0x823 JUMP JUMPDEST PUSH1 0x40 MLOAD PUSH1 0x1F DUP3 ADD PUSH1 0x1F NOT SWAP1 DUP2 AND PUSH1 0x3F ADD AND DUP2 ADD SWAP1 DUP4 DUP3 GT DUP2 DUP4 LT OR ISZERO PUSH2 0x8C0 JUMPI PUSH2 0x8C0 PUSH2 0x823 JUMP JUMPDEST DUP2 PUSH1 0x40 MSTORE DUP3 DUP2 MSTORE DUP9 PUSH1 0x20 DUP5 DUP8 ADD ADD GT ISZERO PUSH2 0x8D9 JUMPI PUSH1 0x0 DUP1 REVERT JUMPDEST DUP3 PUSH1 0x20 DUP7 ADD PUSH1 0x20 DUP4 ADD CALLDATACOPY PUSH1 0x0 PUSH1 0x20 DUP5 DUP4 ADD ADD MSTORE DUP1 SWAP6 POP POP POP POP POP POP SWAP3 POP SWAP3 SWAP1 POP JUMP JUMPDEST PUSH1 0x1 DUP2 DUP2 SHR SWAP1 DUP3 AND DUP1 PUSH2 0x90F JUMPI PUSH1 0x7F DUP3 AND SWAP2 POP JUMPDEST PUSH1 0x20 DUP3 LT DUP2 EQ ISZERO PUSH2 0x38A JUMPI PUSH4 0x4E487B71 PUSH1 0xE0 SHL PUSH1 0x0 MSTORE PUSH1 0x22 PUSH1 0x4 MSTORE PUSH1 0x24 PUSH1 0x0 REVERT JUMPDEST PUSH1 0x20 DUP1 DUP3 MSTORE PUSH1 0x2E SWAP1 DUP3 ADD MSTORE PUSH32 0x596F75206D75737420626520612070726F766964657220746F20616363657373 PUSH1 0x40 DUP3 ADD MSTORE PUSH14 0x103A3434B990333AB731BA34B7B7 PUSH1 0x91 SHL PUSH1 0x60 DUP3 ADD MSTORE PUSH1 0x80 ADD SWAP1 JUMP JUMPDEST PUSH1 0x0 PUSH1 0x20 DUP3 DUP5 SUB SLT ISZERO PUSH2 0x990 JUMPI PUSH1 0x0 DUP1 REVERT JUMPDEST DUP2 MLOAD DUP1 ISZERO ISZERO DUP2 EQ PUSH2 0x7C7 JUMPI PUSH1 0x0 DUP1 REVERT JUMPDEST PUSH1 0x0 PUSH1 0x0 NOT DUP3 EQ ISZERO PUSH2 0x9C2 JUMPI PUSH4 0x4E487B71 PUSH1 0xE0 SHL PUSH1 0x0 MSTORE PUSH1 0x11 PUSH1 0x4 MSTORE PUSH1 0x24 PUSH1 0x0 REVERT JUMPDEST POP PUSH1 0x1 ADD SWAP1 JUMP JUMPDEST PUSH1 0x1 PUSH1 0x1 PUSH1 0xA0 SHL SUB DUP4 AND DUP2 MSTORE PUSH1 0x40 PUSH1 0x20 DUP3 ADD DUP2 SWAP1 MSTORE PUSH1 0x0 SWAP1 PUSH2 0x9ED SWAP1 DUP4 ADD DUP5 PUSH2 0x6DF JUMP JUMPDEST SWAP5 SWAP4 POP POP POP POP JUMP INVALID LOG2 PUSH5 0x6970667358 0x22 SLT KECCAK256 SSTORE OR EQ SWAP8 0xB0 DUP13 0xC2 0xED CALLER OR 0xC7 NOT PUSH22 0x14E64A617683DB5A69423802DD488B294D86F464736F PUSH13 0x634300080B0033000000000000 ",
  "sha1": "e24d9a5fa277ad692abe2afb93e36055af947266",
  "source": "// SPDX-License-Identifier: MIT\npragma solidity >=0.6.6 <0.9.0;\n\n// To allow higher permissions for event having a custom data type (struct)\npragma experimental ABIEncoderV2;\n\n// Interface for Provider Contract Interaction\ninterface IProvider {\n    function checkIfProvider(address _AddressOfUser)\n        external\n        payable\n        returns (bool);\n}\n\ncontract Main {\n    // USER ADDRESS\n    address public AddressOfUser;\n\n    constructor() {\n        AddressOfUser = msg.sender;\n    }\n\n    struct AccessKey {\n        string Key;\n        bool Valid;\n    }\n\n    struct PatientsData {\n        uint256 id;\n        AccessKey PatientKey;\n        bool ValidPatient;\n    }\n\n    // EVENTS for Data in blockchain\n    event ValidatePatient(uint256 id, bool ValidPatient);\n    event InvalidatePatient(uint256 id, bool ValidPatient);\n    event PatientAdded(address _PatientAddress, string _PatientKeyGenerated);\n\n    // Main Database of the Keys and Patients\n    mapping(address => mapping(uint256 => PatientsData)) public Patients;\n    // This will keep record of the keys generated by the patient\n    mapping(address => uint256) KeysGenerated;\n\n    function checkIfProvider(address _AddressOfUser)\n        public\n        payable\n        returns (bool)\n    {\n        // Provider instanceOfProvider = Provider(_AddressOfUser);\n        // return instanceOfProvider.checkIfProvider(_AddressOfUser);\n        return\n            IProvider(0x3A36bf2c867C14FBd2565a2ecAc6848917533415)\n                .checkIfProvider(_AddressOfUser);\n    }\n\n    // MODIFIERS for provider functions\n    modifier onlyProvider() {\n        require(\n            checkIfProvider(AddressOfUser) == true,\n            \"You must be a provider to access this function\"\n        );\n        _;\n    }\n\n    // Check if patient exists in DB\n    function checkPatient(address _PatientWalletAddress)\n        public\n        payable\n        onlyProvider\n        returns (bool)\n    {\n        PatientsData memory _patient_data = Patients[_PatientWalletAddress][0];\n        if (_patient_data.id == 0) {\n            return true;\n        } else {\n            return false;\n        }\n    }\n\n    // Generate key for patient\n    function addPatientToDatabase(\n        address _PatientAddress,\n        string memory _PatientKeyGenerated\n    ) public payable onlyProvider {\n        uint256 keysCount = KeysGenerated[_PatientAddress];\n        PatientsData storage p = Patients[_PatientAddress][keysCount];\n        p.id = keysCount;\n        p.PatientKey.Key = _PatientKeyGenerated;\n        p.PatientKey.Valid = true;\n        p.ValidPatient = true;\n        KeysGenerated[_PatientAddress]++;\n        emit PatientAdded(_PatientAddress, _PatientKeyGenerated);\n    }\n\n    function getSelfKeys() public view returns (PatientsData memory data) {\n        return Patients[AddressOfUser][0];\n    }\n}\n\n// DATA FORMAT (PATIENT)\n/*\n    Patients : {\n        Address : {\n            0 : {\n                id : 0,\n                PatientKey : {\n                    Key : \"XXXXXXXXXXXXX\",\n                    valid : True\n                },\n                ValidPatient : True\n            },\n        }\n    }\n*/\n",
  "sourcePath": "contracts/main.sol",
  "type": "contract"
}