{
  "abi": [
    {
      "inputs": [],
      "stateMutability": "nonpayable",
      "type": "constructor"
    },
    {
      "anonymous": false,
      "inputs": [
        {
          "indexed": false,
          "internalType": "uint256",
          "name": "id",
          "type": "uint256"
        },
        {
          "indexed": false,
          "internalType": "bool",
          "name": "ValidPatient",
          "type": "bool"
        }
      ],
      "name": "InvalidatePatient",
      "type": "event"
    },
    {
      "anonymous": false,
      "inputs": [
        {
          "indexed": false,
          "internalType": "address",
          "name": "_PatientAddress",
          "type": "address"
        },
        {
          "indexed": false,
          "internalType": "string",
          "name": "_PatientKeyGenerated",
          "type": "string"
        }
      ],
      "name": "PatientAdded",
      "type": "event"
    },
    {
      "anonymous": false,
      "inputs": [
        {
          "indexed": false,
          "internalType": "address",
          "name": "_approveTo",
          "type": "address"
        },
        {
          "indexed": false,
          "internalType": "address",
          "name": "User",
          "type": "address"
        }
      ],
      "name": "UserApproved",
      "type": "event"
    },
    {
      "anonymous": false,
      "inputs": [
        {
          "indexed": false,
          "internalType": "uint256",
          "name": "id",
          "type": "uint256"
        },
        {
          "indexed": false,
          "internalType": "bool",
          "name": "ValidPatient",
          "type": "bool"
        }
      ],
      "name": "ValidatePatient",
      "type": "event"
    },
    {
      "inputs": [],
      "name": "AddressOfUser",
      "outputs": [
        {
          "internalType": "address",
          "name": "",
          "type": "address"
        }
      ],
      "stateMutability": "view",
      "type": "function"
    },
    {
      "inputs": [
        {
          "internalType": "address",
          "name": "_PatientAddress",
          "type": "address"
        },
        {
          "internalType": "string",
          "name": "_PatientKeyGenerated",
          "type": "string"
        }
      ],
      "name": "addPatientToDatabase",
      "outputs": [],
      "stateMutability": "payable",
      "type": "function"
    },
    {
      "inputs": [
        {
          "internalType": "address",
          "name": "_approveTo",
          "type": "address"
        }
      ],
      "name": "approveUserForKeyAccess",
      "outputs": [],
      "stateMutability": "payable",
      "type": "function"
    },
    {
      "inputs": [
        {
          "internalType": "address",
          "name": "_AddressOfUser",
          "type": "address"
        }
      ],
      "name": "checkIfProvider",
      "outputs": [
        {
          "internalType": "bool",
          "name": "",
          "type": "bool"
        }
      ],
      "stateMutability": "payable",
      "type": "function"
    },
    {
      "inputs": [
        {
          "internalType": "address",
          "name": "_PatientWalletAddress",
          "type": "address"
        }
      ],
      "name": "checkPatient",
      "outputs": [
        {
          "internalType": "bool",
          "name": "",
          "type": "bool"
        }
      ],
      "stateMutability": "payable",
      "type": "function"
    },
    {
      "inputs": [
        {
          "internalType": "address",
          "name": "_patientAddress",
          "type": "address"
        }
      ],
      "name": "getPatientKey",
      "outputs": [
        {
          "components": [
            {
              "internalType": "uint256",
              "name": "id",
              "type": "uint256"
            },
            {
              "components": [
                {
                  "internalType": "string",
                  "name": "Key",
                  "type": "string"
                },
                {
                  "internalType": "bool",
                  "name": "Valid",
                  "type": "bool"
                }
              ],
              "internalType": "struct Main.AccessKey",
              "name": "PatientKey",
              "type": "tuple"
            },
            {
              "internalType": "bool",
              "name": "ValidPatient",
              "type": "bool"
            }
          ],
          "internalType": "struct Main.PatientsData",
          "name": "data",
          "type": "tuple"
        }
      ],
      "stateMutability": "view",
      "type": "function"
    },
    {
      "inputs": [],
      "name": "getSelfKeys",
      "outputs": [
        {
          "components": [
            {
              "internalType": "uint256",
              "name": "id",
              "type": "uint256"
            },
            {
              "components": [
                {
                  "internalType": "string",
                  "name": "Key",
                  "type": "string"
                },
                {
                  "internalType": "bool",
                  "name": "Valid",
                  "type": "bool"
                }
              ],
              "internalType": "struct Main.AccessKey",
              "name": "PatientKey",
              "type": "tuple"
            },
            {
              "internalType": "bool",
              "name": "ValidPatient",
              "type": "bool"
            }
          ],
          "internalType": "struct Main.PatientsData",
          "name": "data",
          "type": "tuple"
        }
      ],
      "stateMutability": "view",
      "type": "function"
    }
  ],
  "bytecode": "608060405234801561001057600080fd5b50600080546001600160a01b03191633179055610b38806100326000396000f3fe6080604052600436106100705760003560e01c8063a19dcda71161004e578063a19dcda7146100d8578063d64799a7146100f8578063dc220af21461010b578063e4d18d581461014357600080fd5b806306ebbb5c14610075578063083faa1b1461008a5780636529c777146100b5575b600080fd5b61008861008336600461086d565b610156565b005b34801561009657600080fd5b5061009f6101c0565b6040516100ac91906108dc565b60405180910390f35b6100c86100c336600461086d565b6102bb565b60405190151581526020016100ac565b3480156100e457600080fd5b5061009f6100f336600461086d565b610411565b6100c861010636600461086d565b61057c565b34801561011757600080fd5b5060005461012b906001600160a01b031681565b6040516001600160a01b0390911681526020016100ac565b610088610151366004610946565b610603565b33600081815260036020908152604080832054600483528184209381905292825280516001600160a01b038616815291820193909352909183917fd9c01e75f7ea24b510e0bd9bb517232a8f86e1fc7ab85e4675748e30553b30a0910160405180910390a1505050565b6101c861077f565b3360009081526001602081815260408084208480528252928390208351606081018552815481528451808601909552928101805493949193928501928290829061021190610a08565b80601f016020809104026020016040519081016040528092919081815260200182805461023d90610a08565b801561028a5780601f1061025f5761010080835404028352916020019161028a565b820191906000526020600020905b81548152906001019060200180831161026d57829003601f168201915b50505091835250506001919091015460ff908116151560209283015291835260039390930154161515910152919050565b600080546102d1906001600160a01b031661057c565b15156001146102fb5760405162461bcd60e51b81526004016102f290610a3d565b60405180910390fd5b6001600160a01b03821660009081526001602081815260408084208480528252808420815160608101835281548152825180840190935293810180549193850192918290829061034a90610a08565b80601f016020809104026020016040519081016040528092919081815260200182805461037690610a08565b80156103c35780601f10610398576101008083540402835291602001916103c3565b820191906000526020600020905b8154815290600101906020018083116103a657829003601f168201915b50505091835250506001919091015460ff90811615156020928301529183526003939093015416151591015280519091506104015750600192915050565b50600092915050565b505b919050565b61041961077f565b61042282610709565b61047f5760405162461bcd60e51b815260206004820152602860248201527f596f7520646f6e2774206861766520617070726f76616c20666f722070617469604482015267656e74206461746160c01b60648201526084016102f2565b6001600160a01b0382166000908152600160208181526040808420848052825292839020835160608101855281548152845180860190955292810180549394919392850192829082906104d190610a08565b80601f01602080910402602001604051908101604052809291908181526020018280546104fd90610a08565b801561054a5780601f1061051f5761010080835404028352916020019161054a565b820191906000526020600020905b81548152906001019060200180831161052d57829003601f168201915b50505091835250506001919091015460ff90811615156020928301529183526003939093015416151591015292915050565b60405163d64799a760e01b81526001600160a01b038216600482015260009073602c71e4dac47a042ee7f46e0aee17f94a3ba0b69063d64799a7906024016020604051808303816000875af11580156105d9573d6000803e3d6000fd5b505050506040513d601f19601f820116820180604052508101906105fd9190610a8b565b92915050565b600054610618906001600160a01b031661057c565b15156001146106395760405162461bcd60e51b81526004016102f290610a3d565b6001600160a01b03821660009081526002602090815260408083205460018084528285208286528452919093208381558451909261067d92840191908601906107bd565b5060028181018054600160ff19918216811790925560038401805490911690911790556001600160a01b0385166000908152602091909152604081208054916106c583610aad565b91905055507ff537abbc11693c65132fb438317bbefdab9fecb035a7828567ae49f76d6976c584846040516106fb929190610ad6565b60405180910390a150505050565b6001600160a01b038116600090815260036020526040812054815b81811015610775576001600160a01b03848116600090815260046020908152604080832085845290915290205416331415610763575060019392505050565b8061076d81610aad565b915050610724565b5060009392505050565b6040518060600160405280600081526020016107b06040518060400160405280606081526020016000151581525090565b8152600060209091015290565b8280546107c990610a08565b90600052602060002090601f0160209004810192826107eb5760008555610831565b82601f1061080457805160ff1916838001178555610831565b82800160010185558215610831579182015b82811115610831578251825591602001919060010190610816565b5061083d929150610841565b5090565b5b8082111561083d5760008155600101610842565b80356001600160a01b038116811461040c57600080fd5b60006020828403121561087f57600080fd5b61088882610856565b9392505050565b6000815180845260005b818110156108b557602081850181015186830182015201610899565b818111156108c7576000602083870101525b50601f01601f19169290920160200192915050565b6020815281516020820152600060208301516060604084015280516040608085015261090b60c085018261088f565b90506020820151151560a0850152604085015115156060850152809250505092915050565b634e487b7160e01b600052604160045260246000fd5b6000806040838503121561095957600080fd5b61096283610856565b9150602083013567ffffffffffffffff8082111561097f57600080fd5b818501915085601f83011261099357600080fd5b8135818111156109a5576109a5610930565b604051601f8201601f19908116603f011681019083821181831017156109cd576109cd610930565b816040528281528860208487010111156109e657600080fd5b8260208601602083013760006020848301015280955050505050509250929050565b600181811c90821680610a1c57607f821691505b6020821081141561040a57634e487b7160e01b600052602260045260246000fd5b6020808252602e908201527f596f75206d75737420626520612070726f766964657220746f2061636365737360408201526d103a3434b990333ab731ba34b7b760911b606082015260800190565b600060208284031215610a9d57600080fd5b8151801515811461088857600080fd5b6000600019821415610acf57634e487b7160e01b600052601160045260246000fd5b5060010190565b6001600160a01b0383168152604060208201819052600090610afa9083018461088f565b94935050505056fea264697066735822122082729cfcde9d2e2664207ca40dadda21ff27fd3db8f0dc953fd9c55fd54863bf64736f6c634300080b0033",
  "bytecodeSha1": "3a6fefa9aa684645e0e3a28fcef197d571d0472a",
  "compiler": {
    "evm_version": "istanbul",
    "optimizer": {
      "enabled": true,
      "runs": 200
    },
    "version": "0.8.11+commit.d7f03943"
  },
  "contractName": "Main",
  "language": "Solidity",
  "natspec": {
    "kind": "dev",
    "methods": {
      "AddressOfUser()": {
        "notice": "variables ///"
      },
      "addPatientToDatabase(address,string)": {
        "details": "Generate key for patient",
        "params": {
          "_PatientAddress": "Address of the Patient",
          "_PatientKeyGenerated": "Generated key of the patient"
        }
      },
      "approveUserForKeyAccess(address)": {
        "details": "To approve third party to access the key",
        "params": {
          "_approveTo": "Address of the third party"
        }
      },
      "checkIfProvider(address)": {
        "details": "To check if the user is a provider is not",
        "params": {
          "_AddressOfUser": "Address of the user"
        }
      },
      "checkPatient(address)": {
        "details": "Check if patient exists in DB",
        "params": {
          "_PatientWalletAddress": "Address of the Patient Wallet"
        }
      },
      "getPatientKey(address)": {
        "details": "To get the patient key",
        "params": {
          "_patientAddress": "Address of the patient"
        }
      },
      "getSelfKeys()": {
        "details": "To get the self keys"
      }
    },
    "stateVariables": {
      "AddressOfUser": {
        "details": "Address of the user"
      },
      "ApprovedUsers": {
        "details": "Keeping the track of Approved User Address of the patient"
      },
      "KeysGenerated": {
        "details": "This will keep record of the keys generated by the patient"
      },
      "Patients": {
        "details": "Main Database of the Keys and Patients"
      },
      "TotalApprovedUsers": {
        "details": "Keeps the mapping of the total approved users to access the key of particular patient address"
      }
    },
    "version": 1
  },
  "opcodes": "PUSH1 0x80 PUSH1 0x40 MSTORE PUSH1 0x4 CALLDATASIZE LT PUSH2 0x70 JUMPI PUSH1 0x0 CALLDATALOAD PUSH1 0xE0 SHR DUP1 PUSH4 0xA19DCDA7 GT PUSH2 0x4E JUMPI DUP1 PUSH4 0xA19DCDA7 EQ PUSH2 0xD8 JUMPI DUP1 PUSH4 0xD64799A7 EQ PUSH2 0xF8 JUMPI DUP1 PUSH4 0xDC220AF2 EQ PUSH2 0x10B JUMPI DUP1 PUSH4 0xE4D18D58 EQ PUSH2 0x143 JUMPI PUSH1 0x0 DUP1 REVERT JUMPDEST DUP1 PUSH4 0x6EBBB5C EQ PUSH2 0x75 JUMPI DUP1 PUSH4 0x83FAA1B EQ PUSH2 0x8A JUMPI DUP1 PUSH4 0x6529C777 EQ PUSH2 0xB5 JUMPI JUMPDEST PUSH1 0x0 DUP1 REVERT JUMPDEST PUSH2 0x88 PUSH2 0x83 CALLDATASIZE PUSH1 0x4 PUSH2 0x86D JUMP JUMPDEST PUSH2 0x156 JUMP JUMPDEST STOP JUMPDEST CALLVALUE DUP1 ISZERO PUSH2 0x96 JUMPI PUSH1 0x0 DUP1 REVERT JUMPDEST POP PUSH2 0x9F PUSH2 0x1C0 JUMP JUMPDEST PUSH1 0x40 MLOAD PUSH2 0xAC SWAP2 SWAP1 PUSH2 0x8DC JUMP JUMPDEST PUSH1 0x40 MLOAD DUP1 SWAP2 SUB SWAP1 RETURN JUMPDEST PUSH2 0xC8 PUSH2 0xC3 CALLDATASIZE PUSH1 0x4 PUSH2 0x86D JUMP JUMPDEST PUSH2 0x2BB JUMP JUMPDEST PUSH1 0x40 MLOAD SWAP1 ISZERO ISZERO DUP2 MSTORE PUSH1 0x20 ADD PUSH2 0xAC JUMP JUMPDEST CALLVALUE DUP1 ISZERO PUSH2 0xE4 JUMPI PUSH1 0x0 DUP1 REVERT JUMPDEST POP PUSH2 0x9F PUSH2 0xF3 CALLDATASIZE PUSH1 0x4 PUSH2 0x86D JUMP JUMPDEST PUSH2 0x411 JUMP JUMPDEST PUSH2 0xC8 PUSH2 0x106 CALLDATASIZE PUSH1 0x4 PUSH2 0x86D JUMP JUMPDEST PUSH2 0x57C JUMP JUMPDEST CALLVALUE DUP1 ISZERO PUSH2 0x117 JUMPI PUSH1 0x0 DUP1 REVERT JUMPDEST POP PUSH1 0x0 SLOAD PUSH2 0x12B SWAP1 PUSH1 0x1 PUSH1 0x1 PUSH1 0xA0 SHL SUB AND DUP2 JUMP JUMPDEST PUSH1 0x40 MLOAD PUSH1 0x1 PUSH1 0x1 PUSH1 0xA0 SHL SUB SWAP1 SWAP2 AND DUP2 MSTORE PUSH1 0x20 ADD PUSH2 0xAC JUMP JUMPDEST PUSH2 0x88 PUSH2 0x151 CALLDATASIZE PUSH1 0x4 PUSH2 0x946 JUMP JUMPDEST PUSH2 0x603 JUMP JUMPDEST CALLER PUSH1 0x0 DUP2 DUP2 MSTORE PUSH1 0x3 PUSH1 0x20 SWAP1 DUP2 MSTORE PUSH1 0x40 DUP1 DUP4 KECCAK256 SLOAD PUSH1 0x4 DUP4 MSTORE DUP2 DUP5 KECCAK256 SWAP4 DUP2 SWAP1 MSTORE SWAP3 DUP3 MSTORE DUP1 MLOAD PUSH1 0x1 PUSH1 0x1 PUSH1 0xA0 SHL SUB DUP7 AND DUP2 MSTORE SWAP2 DUP3 ADD SWAP4 SWAP1 SWAP4 MSTORE SWAP1 SWAP2 DUP4 SWAP2 PUSH32 0xD9C01E75F7EA24B510E0BD9BB517232A8F86E1FC7AB85E4675748E30553B30A0 SWAP2 ADD PUSH1 0x40 MLOAD DUP1 SWAP2 SUB SWAP1 LOG1 POP POP POP JUMP JUMPDEST PUSH2 0x1C8 PUSH2 0x77F JUMP JUMPDEST CALLER PUSH1 0x0 SWAP1 DUP2 MSTORE PUSH1 0x1 PUSH1 0x20 DUP2 DUP2 MSTORE PUSH1 0x40 DUP1 DUP5 KECCAK256 DUP5 DUP1 MSTORE DUP3 MSTORE SWAP3 DUP4 SWAP1 KECCAK256 DUP4 MLOAD PUSH1 0x60 DUP2 ADD DUP6 MSTORE DUP2 SLOAD DUP2 MSTORE DUP5 MLOAD DUP1 DUP7 ADD SWAP1 SWAP6 MSTORE SWAP3 DUP2 ADD DUP1 SLOAD SWAP4 SWAP5 SWAP2 SWAP4 SWAP3 DUP6 ADD SWAP3 DUP3 SWAP1 DUP3 SWAP1 PUSH2 0x211 SWAP1 PUSH2 0xA08 JUMP JUMPDEST DUP1 PUSH1 0x1F ADD PUSH1 0x20 DUP1 SWAP2 DIV MUL PUSH1 0x20 ADD PUSH1 0x40 MLOAD SWAP1 DUP2 ADD PUSH1 0x40 MSTORE DUP1 SWAP3 SWAP2 SWAP1 DUP2 DUP2 MSTORE PUSH1 0x20 ADD DUP3 DUP1 SLOAD PUSH2 0x23D SWAP1 PUSH2 0xA08 JUMP JUMPDEST DUP1 ISZERO PUSH2 0x28A JUMPI DUP1 PUSH1 0x1F LT PUSH2 0x25F JUMPI PUSH2 0x100 DUP1 DUP4 SLOAD DIV MUL DUP4 MSTORE SWAP2 PUSH1 0x20 ADD SWAP2 PUSH2 0x28A JUMP JUMPDEST DUP3 ADD SWAP2 SWAP1 PUSH1 0x0 MSTORE PUSH1 0x20 PUSH1 0x0 KECCAK256 SWAP1 JUMPDEST DUP2 SLOAD DUP2 MSTORE SWAP1 PUSH1 0x1 ADD SWAP1 PUSH1 0x20 ADD DUP1 DUP4 GT PUSH2 0x26D JUMPI DUP3 SWAP1 SUB PUSH1 0x1F AND DUP3 ADD SWAP2 JUMPDEST POP POP POP SWAP2 DUP4 MSTORE POP POP PUSH1 0x1 SWAP2 SWAP1 SWAP2 ADD SLOAD PUSH1 0xFF SWAP1 DUP2 AND ISZERO ISZERO PUSH1 0x20 SWAP3 DUP4 ADD MSTORE SWAP2 DUP4 MSTORE PUSH1 0x3 SWAP4 SWAP1 SWAP4 ADD SLOAD AND ISZERO ISZERO SWAP2 ADD MSTORE SWAP2 SWAP1 POP JUMP JUMPDEST PUSH1 0x0 DUP1 SLOAD PUSH2 0x2D1 SWAP1 PUSH1 0x1 PUSH1 0x1 PUSH1 0xA0 SHL SUB AND PUSH2 0x57C JUMP JUMPDEST ISZERO ISZERO PUSH1 0x1 EQ PUSH2 0x2FB JUMPI PUSH1 0x40 MLOAD PUSH3 0x461BCD PUSH1 0xE5 SHL DUP2 MSTORE PUSH1 0x4 ADD PUSH2 0x2F2 SWAP1 PUSH2 0xA3D JUMP JUMPDEST PUSH1 0x40 MLOAD DUP1 SWAP2 SUB SWAP1 REVERT JUMPDEST PUSH1 0x1 PUSH1 0x1 PUSH1 0xA0 SHL SUB DUP3 AND PUSH1 0x0 SWAP1 DUP2 MSTORE PUSH1 0x1 PUSH1 0x20 DUP2 DUP2 MSTORE PUSH1 0x40 DUP1 DUP5 KECCAK256 DUP5 DUP1 MSTORE DUP3 MSTORE DUP1 DUP5 KECCAK256 DUP2 MLOAD PUSH1 0x60 DUP2 ADD DUP4 MSTORE DUP2 SLOAD DUP2 MSTORE DUP3 MLOAD DUP1 DUP5 ADD SWAP1 SWAP4 MSTORE SWAP4 DUP2 ADD DUP1 SLOAD SWAP2 SWAP4 DUP6 ADD SWAP3 SWAP2 DUP3 SWAP1 DUP3 SWAP1 PUSH2 0x34A SWAP1 PUSH2 0xA08 JUMP JUMPDEST DUP1 PUSH1 0x1F ADD PUSH1 0x20 DUP1 SWAP2 DIV MUL PUSH1 0x20 ADD PUSH1 0x40 MLOAD SWAP1 DUP2 ADD PUSH1 0x40 MSTORE DUP1 SWAP3 SWAP2 SWAP1 DUP2 DUP2 MSTORE PUSH1 0x20 ADD DUP3 DUP1 SLOAD PUSH2 0x376 SWAP1 PUSH2 0xA08 JUMP JUMPDEST DUP1 ISZERO PUSH2 0x3C3 JUMPI DUP1 PUSH1 0x1F LT PUSH2 0x398 JUMPI PUSH2 0x100 DUP1 DUP4 SLOAD DIV MUL DUP4 MSTORE SWAP2 PUSH1 0x20 ADD SWAP2 PUSH2 0x3C3 JUMP JUMPDEST DUP3 ADD SWAP2 SWAP1 PUSH1 0x0 MSTORE PUSH1 0x20 PUSH1 0x0 KECCAK256 SWAP1 JUMPDEST DUP2 SLOAD DUP2 MSTORE SWAP1 PUSH1 0x1 ADD SWAP1 PUSH1 0x20 ADD DUP1 DUP4 GT PUSH2 0x3A6 JUMPI DUP3 SWAP1 SUB PUSH1 0x1F AND DUP3 ADD SWAP2 JUMPDEST POP POP POP SWAP2 DUP4 MSTORE POP POP PUSH1 0x1 SWAP2 SWAP1 SWAP2 ADD SLOAD PUSH1 0xFF SWAP1 DUP2 AND ISZERO ISZERO PUSH1 0x20 SWAP3 DUP4 ADD MSTORE SWAP2 DUP4 MSTORE PUSH1 0x3 SWAP4 SWAP1 SWAP4 ADD SLOAD AND ISZERO ISZERO SWAP2 ADD MSTORE DUP1 MLOAD SWAP1 SWAP2 POP PUSH2 0x401 JUMPI POP PUSH1 0x1 SWAP3 SWAP2 POP POP JUMP JUMPDEST POP PUSH1 0x0 SWAP3 SWAP2 POP POP JUMP JUMPDEST POP JUMPDEST SWAP2 SWAP1 POP JUMP JUMPDEST PUSH2 0x419 PUSH2 0x77F JUMP JUMPDEST PUSH2 0x422 DUP3 PUSH2 0x709 JUMP JUMPDEST PUSH2 0x47F JUMPI PUSH1 0x40 MLOAD PUSH3 0x461BCD PUSH1 0xE5 SHL DUP2 MSTORE PUSH1 0x20 PUSH1 0x4 DUP3 ADD MSTORE PUSH1 0x28 PUSH1 0x24 DUP3 ADD MSTORE PUSH32 0x596F7520646F6E2774206861766520617070726F76616C20666F722070617469 PUSH1 0x44 DUP3 ADD MSTORE PUSH8 0x656E742064617461 PUSH1 0xC0 SHL PUSH1 0x64 DUP3 ADD MSTORE PUSH1 0x84 ADD PUSH2 0x2F2 JUMP JUMPDEST PUSH1 0x1 PUSH1 0x1 PUSH1 0xA0 SHL SUB DUP3 AND PUSH1 0x0 SWAP1 DUP2 MSTORE PUSH1 0x1 PUSH1 0x20 DUP2 DUP2 MSTORE PUSH1 0x40 DUP1 DUP5 KECCAK256 DUP5 DUP1 MSTORE DUP3 MSTORE SWAP3 DUP4 SWAP1 KECCAK256 DUP4 MLOAD PUSH1 0x60 DUP2 ADD DUP6 MSTORE DUP2 SLOAD DUP2 MSTORE DUP5 MLOAD DUP1 DUP7 ADD SWAP1 SWAP6 MSTORE SWAP3 DUP2 ADD DUP1 SLOAD SWAP4 SWAP5 SWAP2 SWAP4 SWAP3 DUP6 ADD SWAP3 DUP3 SWAP1 DUP3 SWAP1 PUSH2 0x4D1 SWAP1 PUSH2 0xA08 JUMP JUMPDEST DUP1 PUSH1 0x1F ADD PUSH1 0x20 DUP1 SWAP2 DIV MUL PUSH1 0x20 ADD PUSH1 0x40 MLOAD SWAP1 DUP2 ADD PUSH1 0x40 MSTORE DUP1 SWAP3 SWAP2 SWAP1 DUP2 DUP2 MSTORE PUSH1 0x20 ADD DUP3 DUP1 SLOAD PUSH2 0x4FD SWAP1 PUSH2 0xA08 JUMP JUMPDEST DUP1 ISZERO PUSH2 0x54A JUMPI DUP1 PUSH1 0x1F LT PUSH2 0x51F JUMPI PUSH2 0x100 DUP1 DUP4 SLOAD DIV MUL DUP4 MSTORE SWAP2 PUSH1 0x20 ADD SWAP2 PUSH2 0x54A JUMP JUMPDEST DUP3 ADD SWAP2 SWAP1 PUSH1 0x0 MSTORE PUSH1 0x20 PUSH1 0x0 KECCAK256 SWAP1 JUMPDEST DUP2 SLOAD DUP2 MSTORE SWAP1 PUSH1 0x1 ADD SWAP1 PUSH1 0x20 ADD DUP1 DUP4 GT PUSH2 0x52D JUMPI DUP3 SWAP1 SUB PUSH1 0x1F AND DUP3 ADD SWAP2 JUMPDEST POP POP POP SWAP2 DUP4 MSTORE POP POP PUSH1 0x1 SWAP2 SWAP1 SWAP2 ADD SLOAD PUSH1 0xFF SWAP1 DUP2 AND ISZERO ISZERO PUSH1 0x20 SWAP3 DUP4 ADD MSTORE SWAP2 DUP4 MSTORE PUSH1 0x3 SWAP4 SWAP1 SWAP4 ADD SLOAD AND ISZERO ISZERO SWAP2 ADD MSTORE SWAP3 SWAP2 POP POP JUMP JUMPDEST PUSH1 0x40 MLOAD PUSH4 0xD64799A7 PUSH1 0xE0 SHL DUP2 MSTORE PUSH1 0x1 PUSH1 0x1 PUSH1 0xA0 SHL SUB DUP3 AND PUSH1 0x4 DUP3 ADD MSTORE PUSH1 0x0 SWAP1 PUSH20 0x602C71E4DAC47A042EE7F46E0AEE17F94A3BA0B6 SWAP1 PUSH4 0xD64799A7 SWAP1 PUSH1 0x24 ADD PUSH1 0x20 PUSH1 0x40 MLOAD DUP1 DUP4 SUB DUP2 PUSH1 0x0 DUP8 GAS CALL ISZERO DUP1 ISZERO PUSH2 0x5D9 JUMPI RETURNDATASIZE PUSH1 0x0 DUP1 RETURNDATACOPY RETURNDATASIZE PUSH1 0x0 REVERT JUMPDEST POP POP POP POP PUSH1 0x40 MLOAD RETURNDATASIZE PUSH1 0x1F NOT PUSH1 0x1F DUP3 ADD AND DUP3 ADD DUP1 PUSH1 0x40 MSTORE POP DUP2 ADD SWAP1 PUSH2 0x5FD SWAP2 SWAP1 PUSH2 0xA8B JUMP JUMPDEST SWAP3 SWAP2 POP POP JUMP JUMPDEST PUSH1 0x0 SLOAD PUSH2 0x618 SWAP1 PUSH1 0x1 PUSH1 0x1 PUSH1 0xA0 SHL SUB AND PUSH2 0x57C JUMP JUMPDEST ISZERO ISZERO PUSH1 0x1 EQ PUSH2 0x639 JUMPI PUSH1 0x40 MLOAD PUSH3 0x461BCD PUSH1 0xE5 SHL DUP2 MSTORE PUSH1 0x4 ADD PUSH2 0x2F2 SWAP1 PUSH2 0xA3D JUMP JUMPDEST PUSH1 0x1 PUSH1 0x1 PUSH1 0xA0 SHL SUB DUP3 AND PUSH1 0x0 SWAP1 DUP2 MSTORE PUSH1 0x2 PUSH1 0x20 SWAP1 DUP2 MSTORE PUSH1 0x40 DUP1 DUP4 KECCAK256 SLOAD PUSH1 0x1 DUP1 DUP5 MSTORE DUP3 DUP6 KECCAK256 DUP3 DUP7 MSTORE DUP5 MSTORE SWAP2 SWAP1 SWAP4 KECCAK256 DUP4 DUP2 SSTORE DUP5 MLOAD SWAP1 SWAP3 PUSH2 0x67D SWAP3 DUP5 ADD SWAP2 SWAP1 DUP7 ADD SWAP1 PUSH2 0x7BD JUMP JUMPDEST POP PUSH1 0x2 DUP2 DUP2 ADD DUP1 SLOAD PUSH1 0x1 PUSH1 0xFF NOT SWAP2 DUP3 AND DUP2 OR SWAP1 SWAP3 SSTORE PUSH1 0x3 DUP5 ADD DUP1 SLOAD SWAP1 SWAP2 AND SWAP1 SWAP2 OR SWAP1 SSTORE PUSH1 0x1 PUSH1 0x1 PUSH1 0xA0 SHL SUB DUP6 AND PUSH1 0x0 SWAP1 DUP2 MSTORE PUSH1 0x20 SWAP2 SWAP1 SWAP2 MSTORE PUSH1 0x40 DUP2 KECCAK256 DUP1 SLOAD SWAP2 PUSH2 0x6C5 DUP4 PUSH2 0xAAD JUMP JUMPDEST SWAP2 SWAP1 POP SSTORE POP PUSH32 0xF537ABBC11693C65132FB438317BBEFDAB9FECB035A7828567AE49F76D6976C5 DUP5 DUP5 PUSH1 0x40 MLOAD PUSH2 0x6FB SWAP3 SWAP2 SWAP1 PUSH2 0xAD6 JUMP JUMPDEST PUSH1 0x40 MLOAD DUP1 SWAP2 SUB SWAP1 LOG1 POP POP POP POP JUMP JUMPDEST PUSH1 0x1 PUSH1 0x1 PUSH1 0xA0 SHL SUB DUP2 AND PUSH1 0x0 SWAP1 DUP2 MSTORE PUSH1 0x3 PUSH1 0x20 MSTORE PUSH1 0x40 DUP2 KECCAK256 SLOAD DUP2 JUMPDEST DUP2 DUP2 LT ISZERO PUSH2 0x775 JUMPI PUSH1 0x1 PUSH1 0x1 PUSH1 0xA0 SHL SUB DUP5 DUP2 AND PUSH1 0x0 SWAP1 DUP2 MSTORE PUSH1 0x4 PUSH1 0x20 SWAP1 DUP2 MSTORE PUSH1 0x40 DUP1 DUP4 KECCAK256 DUP6 DUP5 MSTORE SWAP1 SWAP2 MSTORE SWAP1 KECCAK256 SLOAD AND CALLER EQ ISZERO PUSH2 0x763 JUMPI POP PUSH1 0x1 SWAP4 SWAP3 POP POP POP JUMP JUMPDEST DUP1 PUSH2 0x76D DUP2 PUSH2 0xAAD JUMP JUMPDEST SWAP2 POP POP PUSH2 0x724 JUMP JUMPDEST POP PUSH1 0x0 SWAP4 SWAP3 POP POP POP JUMP JUMPDEST PUSH1 0x40 MLOAD DUP1 PUSH1 0x60 ADD PUSH1 0x40 MSTORE DUP1 PUSH1 0x0 DUP2 MSTORE PUSH1 0x20 ADD PUSH2 0x7B0 PUSH1 0x40 MLOAD DUP1 PUSH1 0x40 ADD PUSH1 0x40 MSTORE DUP1 PUSH1 0x60 DUP2 MSTORE PUSH1 0x20 ADD PUSH1 0x0 ISZERO ISZERO DUP2 MSTORE POP SWAP1 JUMP JUMPDEST DUP2 MSTORE PUSH1 0x0 PUSH1 0x20 SWAP1 SWAP2 ADD MSTORE SWAP1 JUMP JUMPDEST DUP3 DUP1 SLOAD PUSH2 0x7C9 SWAP1 PUSH2 0xA08 JUMP JUMPDEST SWAP1 PUSH1 0x0 MSTORE PUSH1 0x20 PUSH1 0x0 KECCAK256 SWAP1 PUSH1 0x1F ADD PUSH1 0x20 SWAP1 DIV DUP2 ADD SWAP3 DUP3 PUSH2 0x7EB JUMPI PUSH1 0x0 DUP6 SSTORE PUSH2 0x831 JUMP JUMPDEST DUP3 PUSH1 0x1F LT PUSH2 0x804 JUMPI DUP1 MLOAD PUSH1 0xFF NOT AND DUP4 DUP1 ADD OR DUP6 SSTORE PUSH2 0x831 JUMP JUMPDEST DUP3 DUP1 ADD PUSH1 0x1 ADD DUP6 SSTORE DUP3 ISZERO PUSH2 0x831 JUMPI SWAP2 DUP3 ADD JUMPDEST DUP3 DUP2 GT ISZERO PUSH2 0x831 JUMPI DUP3 MLOAD DUP3 SSTORE SWAP2 PUSH1 0x20 ADD SWAP2 SWAP1 PUSH1 0x1 ADD SWAP1 PUSH2 0x816 JUMP JUMPDEST POP PUSH2 0x83D SWAP3 SWAP2 POP PUSH2 0x841 JUMP JUMPDEST POP SWAP1 JUMP JUMPDEST JUMPDEST DUP1 DUP3 GT ISZERO PUSH2 0x83D JUMPI PUSH1 0x0 DUP2 SSTORE PUSH1 0x1 ADD PUSH2 0x842 JUMP JUMPDEST DUP1 CALLDATALOAD PUSH1 0x1 PUSH1 0x1 PUSH1 0xA0 SHL SUB DUP2 AND DUP2 EQ PUSH2 0x40C JUMPI PUSH1 0x0 DUP1 REVERT JUMPDEST PUSH1 0x0 PUSH1 0x20 DUP3 DUP5 SUB SLT ISZERO PUSH2 0x87F JUMPI PUSH1 0x0 DUP1 REVERT JUMPDEST PUSH2 0x888 DUP3 PUSH2 0x856 JUMP JUMPDEST SWAP4 SWAP3 POP POP POP JUMP JUMPDEST PUSH1 0x0 DUP2 MLOAD DUP1 DUP5 MSTORE PUSH1 0x0 JUMPDEST DUP2 DUP2 LT ISZERO PUSH2 0x8B5 JUMPI PUSH1 0x20 DUP2 DUP6 ADD DUP2 ADD MLOAD DUP7 DUP4 ADD DUP3 ADD MSTORE ADD PUSH2 0x899 JUMP JUMPDEST DUP2 DUP2 GT ISZERO PUSH2 0x8C7 JUMPI PUSH1 0x0 PUSH1 0x20 DUP4 DUP8 ADD ADD MSTORE JUMPDEST POP PUSH1 0x1F ADD PUSH1 0x1F NOT AND SWAP3 SWAP1 SWAP3 ADD PUSH1 0x20 ADD SWAP3 SWAP2 POP POP JUMP JUMPDEST PUSH1 0x20 DUP2 MSTORE DUP2 MLOAD PUSH1 0x20 DUP3 ADD MSTORE PUSH1 0x0 PUSH1 0x20 DUP4 ADD MLOAD PUSH1 0x60 PUSH1 0x40 DUP5 ADD MSTORE DUP1 MLOAD PUSH1 0x40 PUSH1 0x80 DUP6 ADD MSTORE PUSH2 0x90B PUSH1 0xC0 DUP6 ADD DUP3 PUSH2 0x88F JUMP JUMPDEST SWAP1 POP PUSH1 0x20 DUP3 ADD MLOAD ISZERO ISZERO PUSH1 0xA0 DUP6 ADD MSTORE PUSH1 0x40 DUP6 ADD MLOAD ISZERO ISZERO PUSH1 0x60 DUP6 ADD MSTORE DUP1 SWAP3 POP POP POP SWAP3 SWAP2 POP POP JUMP JUMPDEST PUSH4 0x4E487B71 PUSH1 0xE0 SHL PUSH1 0x0 MSTORE PUSH1 0x41 PUSH1 0x4 MSTORE PUSH1 0x24 PUSH1 0x0 REVERT JUMPDEST PUSH1 0x0 DUP1 PUSH1 0x40 DUP4 DUP6 SUB SLT ISZERO PUSH2 0x959 JUMPI PUSH1 0x0 DUP1 REVERT JUMPDEST PUSH2 0x962 DUP4 PUSH2 0x856 JUMP JUMPDEST SWAP2 POP PUSH1 0x20 DUP4 ADD CALLDATALOAD PUSH8 0xFFFFFFFFFFFFFFFF DUP1 DUP3 GT ISZERO PUSH2 0x97F JUMPI PUSH1 0x0 DUP1 REVERT JUMPDEST DUP2 DUP6 ADD SWAP2 POP DUP6 PUSH1 0x1F DUP4 ADD SLT PUSH2 0x993 JUMPI PUSH1 0x0 DUP1 REVERT JUMPDEST DUP2 CALLDATALOAD DUP2 DUP2 GT ISZERO PUSH2 0x9A5 JUMPI PUSH2 0x9A5 PUSH2 0x930 JUMP JUMPDEST PUSH1 0x40 MLOAD PUSH1 0x1F DUP3 ADD PUSH1 0x1F NOT SWAP1 DUP2 AND PUSH1 0x3F ADD AND DUP2 ADD SWAP1 DUP4 DUP3 GT DUP2 DUP4 LT OR ISZERO PUSH2 0x9CD JUMPI PUSH2 0x9CD PUSH2 0x930 JUMP JUMPDEST DUP2 PUSH1 0x40 MSTORE DUP3 DUP2 MSTORE DUP9 PUSH1 0x20 DUP5 DUP8 ADD ADD GT ISZERO PUSH2 0x9E6 JUMPI PUSH1 0x0 DUP1 REVERT JUMPDEST DUP3 PUSH1 0x20 DUP7 ADD PUSH1 0x20 DUP4 ADD CALLDATACOPY PUSH1 0x0 PUSH1 0x20 DUP5 DUP4 ADD ADD MSTORE DUP1 SWAP6 POP POP POP POP POP POP SWAP3 POP SWAP3 SWAP1 POP JUMP JUMPDEST PUSH1 0x1 DUP2 DUP2 SHR SWAP1 DUP3 AND DUP1 PUSH2 0xA1C JUMPI PUSH1 0x7F DUP3 AND SWAP2 POP JUMPDEST PUSH1 0x20 DUP3 LT DUP2 EQ ISZERO PUSH2 0x40A JUMPI PUSH4 0x4E487B71 PUSH1 0xE0 SHL PUSH1 0x0 MSTORE PUSH1 0x22 PUSH1 0x4 MSTORE PUSH1 0x24 PUSH1 0x0 REVERT JUMPDEST PUSH1 0x20 DUP1 DUP3 MSTORE PUSH1 0x2E SWAP1 DUP3 ADD MSTORE PUSH32 0x596F75206D75737420626520612070726F766964657220746F20616363657373 PUSH1 0x40 DUP3 ADD MSTORE PUSH14 0x103A3434B990333AB731BA34B7B7 PUSH1 0x91 SHL PUSH1 0x60 DUP3 ADD MSTORE PUSH1 0x80 ADD SWAP1 JUMP JUMPDEST PUSH1 0x0 PUSH1 0x20 DUP3 DUP5 SUB SLT ISZERO PUSH2 0xA9D JUMPI PUSH1 0x0 DUP1 REVERT JUMPDEST DUP2 MLOAD DUP1 ISZERO ISZERO DUP2 EQ PUSH2 0x888 JUMPI PUSH1 0x0 DUP1 REVERT JUMPDEST PUSH1 0x0 PUSH1 0x0 NOT DUP3 EQ ISZERO PUSH2 0xACF JUMPI PUSH4 0x4E487B71 PUSH1 0xE0 SHL PUSH1 0x0 MSTORE PUSH1 0x11 PUSH1 0x4 MSTORE PUSH1 0x24 PUSH1 0x0 REVERT JUMPDEST POP PUSH1 0x1 ADD SWAP1 JUMP JUMPDEST PUSH1 0x1 PUSH1 0x1 PUSH1 0xA0 SHL SUB DUP4 AND DUP2 MSTORE PUSH1 0x40 PUSH1 0x20 DUP3 ADD DUP2 SWAP1 MSTORE PUSH1 0x0 SWAP1 PUSH2 0xAFA SWAP1 DUP4 ADD DUP5 PUSH2 0x88F JUMP JUMPDEST SWAP5 SWAP4 POP POP POP POP JUMP INVALID LOG2 PUSH5 0x6970667358 0x22 SLT KECCAK256 DUP3 PUSH19 0x9CFCDE9D2E2664207CA40DADDA21FF27FD3DB8 CREATE 0xDC SWAP6 EXTCODEHASH 0xD9 0xC5 0x5F 0xD5 BASEFEE PUSH4 0xBF64736F PUSH13 0x634300080B0033000000000000 ",
  "sha1": "fd1d4e8d537d57439440d95d5231dfce18a6d0c6",
  "source": "// SPDX-License-Identifier: MIT\npragma solidity >=0.6.6 <0.9.0;\n\n// To allow higher permissions for event having a custom data type (struct)\npragma experimental ABIEncoderV2;\n\n// Interface for Provider Contract Interaction\ninterface IProvider {\n    function checkIfProvider(address _AddressOfUser)\n        external\n        payable\n        returns (bool);\n}\n\ncontract Main {\n    /// variables ///\n    /// @dev Address of the user\n    address public AddressOfUser;\n\n    constructor() {\n        AddressOfUser = msg.sender;\n    }\n\n    struct AccessKey {\n        string Key;\n        bool Valid;\n    }\n\n    struct PatientsData {\n        uint256 id;\n        AccessKey PatientKey;\n        bool ValidPatient;\n    }\n\n    /// @notice EVENTS for Data in blockchain\n    event ValidatePatient(uint256 id, bool ValidPatient);\n    event InvalidatePatient(uint256 id, bool ValidPatient);\n    event PatientAdded(address _PatientAddress, string _PatientKeyGenerated);\n    event UserApproved(address _approveTo, address User);\n\n    /// @dev Main Database of the Keys and Patients\n    mapping(address => mapping(uint256 => PatientsData)) Patients;\n    /// @dev This will keep record of the keys generated by the patient\n    mapping(address => uint256) KeysGenerated;\n    /// @dev Keeps the mapping of the total approved users to access the key of particular patient address\n    mapping(address => uint256) TotalApprovedUsers;\n    /// @dev Keeping the track of Approved User Address of the patient\n    mapping(address => mapping(uint256 => address)) ApprovedUsers;\n\n    /// @dev To check if the user is a provider is not\n    /// @param _AddressOfUser Address of the user\n    function checkIfProvider(address _AddressOfUser)\n        public\n        payable\n        returns (bool)\n    {\n        return\n            IProvider(0x602C71e4DAC47a042Ee7f46E0aee17F94A3bA0B6)\n                .checkIfProvider(_AddressOfUser);\n    }\n\n    /// @dev MODIFIERS for provider functions\n    modifier onlyProvider() {\n        require(\n            checkIfProvider(AddressOfUser) == true,\n            \"You must be a provider to access this function\"\n        );\n        _;\n    }\n\n    /// @dev Check if patient exists in DB\n    /// @param _PatientWalletAddress Address of the Patient Wallet\n    function checkPatient(address _PatientWalletAddress)\n        public\n        payable\n        onlyProvider\n        returns (bool)\n    {\n        PatientsData memory _patient_data = Patients[_PatientWalletAddress][0];\n        if (_patient_data.id == 0) {\n            return true;\n        } else {\n            return false;\n        }\n    }\n\n    /// @dev Generate key for patient\n    /// @param _PatientAddress Address of the Patient\n    /// @param _PatientKeyGenerated Generated key of the patient\n    function addPatientToDatabase(\n        address _PatientAddress,\n        string memory _PatientKeyGenerated\n    ) public payable onlyProvider {\n        uint256 keysCount = KeysGenerated[_PatientAddress];\n        PatientsData storage p = Patients[_PatientAddress][keysCount];\n        p.id = keysCount;\n        p.PatientKey.Key = _PatientKeyGenerated;\n        p.PatientKey.Valid = true;\n        p.ValidPatient = true;\n        KeysGenerated[_PatientAddress]++;\n        emit PatientAdded(_PatientAddress, _PatientKeyGenerated);\n    }\n\n    /// @dev To approve third party to access the key\n    /// @param _approveTo Address of the third party\n    function approveUserForKeyAccess(address _approveTo) public payable {\n        uint256 totalApproveUsers = TotalApprovedUsers[msg.sender];\n        address u = ApprovedUsers[msg.sender][totalApproveUsers];\n        u = _approveTo;\n        emit UserApproved(_approveTo, msg.sender);\n    }\n\n    /// @dev To get the patient key\n    /// @param _patientAddress Address of the patient\n    function getPatientKey(address _patientAddress)\n        public\n        view\n        returns (PatientsData memory data)\n    {\n        require(\n            _approvalGranted(_patientAddress),\n            \"You don't have approval for patient data\"\n        );\n\n        return Patients[_patientAddress][0];\n    }\n\n    /// @dev To check if party approved to access address or not\n    /// @param _patientAddress Address of the patient\n    function _approvalGranted(address _patientAddress)\n        private\n        view\n        returns (bool)\n    {\n        uint256 totalApproveByPatient = TotalApprovedUsers[_patientAddress];\n        for (uint256 i = 0; i < totalApproveByPatient; i++) {\n            if (ApprovedUsers[_patientAddress][i] == msg.sender) {\n                return true;\n            }\n        }\n        return false;\n    }\n\n    /// @dev To get the self keys\n    function getSelfKeys() public view returns (PatientsData memory data) {\n        return Patients[msg.sender][0];\n    }\n}\n",
  "sourcePath": "contracts/main.sol",
  "type": "contract"
}