{
  "abi": [
    {
      "inputs": [],
      "stateMutability": "nonpayable",
      "type": "constructor"
    },
    {
      "inputs": [],
      "name": "AddressOfProvider",
      "outputs": [
        {
          "internalType": "address",
          "name": "",
          "type": "address"
        }
      ],
      "stateMutability": "view",
      "type": "function"
    },
    {
      "inputs": [
        {
          "internalType": "address",
          "name": "",
          "type": "address"
        }
      ],
      "name": "Providers",
      "outputs": [
        {
          "internalType": "bool",
          "name": "",
          "type": "bool"
        }
      ],
      "stateMutability": "view",
      "type": "function"
    },
    {
      "inputs": [
        {
          "internalType": "address",
          "name": "_UserAddress",
          "type": "address"
        }
      ],
      "name": "checkIfProvider",
      "outputs": [
        {
          "internalType": "bool",
          "name": "",
          "type": "bool"
        }
      ],
      "stateMutability": "view",
      "type": "function"
    },
    {
      "inputs": [],
      "name": "owner",
      "outputs": [
        {
          "internalType": "address",
          "name": "",
          "type": "address"
        }
      ],
      "stateMutability": "view",
      "type": "function"
    },
    {
      "inputs": [
        {
          "internalType": "address",
          "name": "_UserAddress",
          "type": "address"
        }
      ],
      "name": "setProvider",
      "outputs": [],
      "stateMutability": "nonpayable",
      "type": "function"
    }
  ],
  "bytecode": "608060405234801561001057600080fd5b5060008054336001600160a01b0319918216811783556001805490921617905561022b90819061004090396000f3fe608060405234801561001057600080fd5b50600436106100575760003560e01c8063018d0f8d1461005c5780631776904a146100945780638da5cb5b146100bf578063cfd8d6c0146100d2578063d64799a7146100e7575b600080fd5b61007f61006a3660046101c5565b60026020526000908152604090205460ff1681565b60405190151581526020015b60405180910390f35b6000546100a7906001600160a01b031681565b6040516001600160a01b03909116815260200161008b565b6001546100a7906001600160a01b031681565b6100e56100e03660046101c5565b610113565b005b61007f6100f53660046101c5565b6001600160a01b031660009081526002602052604090205460ff1690565b6001546001600160a01b031633146101a15760405162461bcd60e51b815260206004820152604160248201527f796f75206e65656420746f206265206120636f6e7472616374206f776e65722060448201527f696e206f7264657220746f206578656375746520746869732066756e6374696f6064820152603760f91b608482015260a40160405180910390fd5b6001600160a01b03166000908152600260205260409020805460ff19166001179055565b6000602082840312156101d757600080fd5b81356001600160a01b03811681146101ee57600080fd5b939250505056fea2646970667358221220cd8363d35e8a79f6dcb6a1ec4cb9ec8c66e75bae062affed20b8f2e819ed47bc64736f6c634300080b0033",
  "bytecodeSha1": "8ca669e6f3428c1c22bf4d613cf2cbb3104e959e",
  "compiler": {
    "evm_version": "istanbul",
    "optimizer": {
      "enabled": true,
      "runs": 200
    },
    "version": "0.8.11+commit.d7f03943"
  },
  "contractName": "Provider",
  "language": "Solidity",
  "natspec": {
    "kind": "dev",
    "methods": {},
    "version": 1
  },
  "opcodes": "PUSH1 0x80 PUSH1 0x40 MSTORE CALLVALUE DUP1 ISZERO PUSH2 0x10 JUMPI PUSH1 0x0 DUP1 REVERT JUMPDEST POP PUSH1 0x4 CALLDATASIZE LT PUSH2 0x57 JUMPI PUSH1 0x0 CALLDATALOAD PUSH1 0xE0 SHR DUP1 PUSH4 0x18D0F8D EQ PUSH2 0x5C JUMPI DUP1 PUSH4 0x1776904A EQ PUSH2 0x94 JUMPI DUP1 PUSH4 0x8DA5CB5B EQ PUSH2 0xBF JUMPI DUP1 PUSH4 0xCFD8D6C0 EQ PUSH2 0xD2 JUMPI DUP1 PUSH4 0xD64799A7 EQ PUSH2 0xE7 JUMPI JUMPDEST PUSH1 0x0 DUP1 REVERT JUMPDEST PUSH2 0x7F PUSH2 0x6A CALLDATASIZE PUSH1 0x4 PUSH2 0x1C5 JUMP JUMPDEST PUSH1 0x2 PUSH1 0x20 MSTORE PUSH1 0x0 SWAP1 DUP2 MSTORE PUSH1 0x40 SWAP1 KECCAK256 SLOAD PUSH1 0xFF AND DUP2 JUMP JUMPDEST PUSH1 0x40 MLOAD SWAP1 ISZERO ISZERO DUP2 MSTORE PUSH1 0x20 ADD JUMPDEST PUSH1 0x40 MLOAD DUP1 SWAP2 SUB SWAP1 RETURN JUMPDEST PUSH1 0x0 SLOAD PUSH2 0xA7 SWAP1 PUSH1 0x1 PUSH1 0x1 PUSH1 0xA0 SHL SUB AND DUP2 JUMP JUMPDEST PUSH1 0x40 MLOAD PUSH1 0x1 PUSH1 0x1 PUSH1 0xA0 SHL SUB SWAP1 SWAP2 AND DUP2 MSTORE PUSH1 0x20 ADD PUSH2 0x8B JUMP JUMPDEST PUSH1 0x1 SLOAD PUSH2 0xA7 SWAP1 PUSH1 0x1 PUSH1 0x1 PUSH1 0xA0 SHL SUB AND DUP2 JUMP JUMPDEST PUSH2 0xE5 PUSH2 0xE0 CALLDATASIZE PUSH1 0x4 PUSH2 0x1C5 JUMP JUMPDEST PUSH2 0x113 JUMP JUMPDEST STOP JUMPDEST PUSH2 0x7F PUSH2 0xF5 CALLDATASIZE PUSH1 0x4 PUSH2 0x1C5 JUMP JUMPDEST PUSH1 0x1 PUSH1 0x1 PUSH1 0xA0 SHL SUB AND PUSH1 0x0 SWAP1 DUP2 MSTORE PUSH1 0x2 PUSH1 0x20 MSTORE PUSH1 0x40 SWAP1 KECCAK256 SLOAD PUSH1 0xFF AND SWAP1 JUMP JUMPDEST PUSH1 0x1 SLOAD PUSH1 0x1 PUSH1 0x1 PUSH1 0xA0 SHL SUB AND CALLER EQ PUSH2 0x1A1 JUMPI PUSH1 0x40 MLOAD PUSH3 0x461BCD PUSH1 0xE5 SHL DUP2 MSTORE PUSH1 0x20 PUSH1 0x4 DUP3 ADD MSTORE PUSH1 0x41 PUSH1 0x24 DUP3 ADD MSTORE PUSH32 0x796F75206E65656420746F206265206120636F6E7472616374206F776E657220 PUSH1 0x44 DUP3 ADD MSTORE PUSH32 0x696E206F7264657220746F206578656375746520746869732066756E6374696F PUSH1 0x64 DUP3 ADD MSTORE PUSH1 0x37 PUSH1 0xF9 SHL PUSH1 0x84 DUP3 ADD MSTORE PUSH1 0xA4 ADD PUSH1 0x40 MLOAD DUP1 SWAP2 SUB SWAP1 REVERT JUMPDEST PUSH1 0x1 PUSH1 0x1 PUSH1 0xA0 SHL SUB AND PUSH1 0x0 SWAP1 DUP2 MSTORE PUSH1 0x2 PUSH1 0x20 MSTORE PUSH1 0x40 SWAP1 KECCAK256 DUP1 SLOAD PUSH1 0xFF NOT AND PUSH1 0x1 OR SWAP1 SSTORE JUMP JUMPDEST PUSH1 0x0 PUSH1 0x20 DUP3 DUP5 SUB SLT ISZERO PUSH2 0x1D7 JUMPI PUSH1 0x0 DUP1 REVERT JUMPDEST DUP2 CALLDATALOAD PUSH1 0x1 PUSH1 0x1 PUSH1 0xA0 SHL SUB DUP2 AND DUP2 EQ PUSH2 0x1EE JUMPI PUSH1 0x0 DUP1 REVERT JUMPDEST SWAP4 SWAP3 POP POP POP JUMP INVALID LOG2 PUSH5 0x6970667358 0x22 SLT KECCAK256 0xCD DUP4 PUSH4 0xD35E8A79 0xF6 0xDC 0xB6 LOG1 0xEC 0x4C 0xB9 0xEC DUP13 PUSH7 0xE75BAE062AFFED KECCAK256 0xB8 CALLCODE 0xE8 NOT 0xED SELFBALANCE 0xBC PUSH5 0x736F6C6343 STOP ADDMOD SIGNEXTEND STOP CALLER ",
  "sha1": "a8b8a357bdc1bfae69e245dfbe1734be5180f0da",
  "source": "// SPDX-License-Identifier: MIT\npragma solidity >=0.6.6 <0.9.0;\n\ncontract Provider {\n    address public AddressOfProvider;\n    address public owner;\n\n    constructor() {\n        AddressOfProvider = msg.sender;\n        owner = msg.sender;\n    }\n\n    // Keeping the record of the providers in the network\n    mapping(address => bool) public Providers;\n\n    modifier onlyOwner() {\n        require(\n            msg.sender == owner,\n            \"you need to be a contract owner in order to execute this function\"\n        );\n        _;\n    }\n\n    // Set user as a provider\n    function setProvider(address _UserAddress) public onlyOwner {\n        Providers[_UserAddress] = true;\n    }\n\n    // Check if a user address is the provider\n    function checkIfProvider(address _UserAddress) public view returns (bool) {\n        return Providers[_UserAddress];\n    }\n}\n",
  "sourcePath": "contracts/provider.sol",
  "type": "contract"
}